:100000000C9462000C94ED030C94C6030C948A00CB
:100010000C948A000C948A000C948A000C948A0038
:100020000C948A000C948A000C948A000C946C0442
:100030000C948A000C948A000C948A000C948A0018
:100040000C947C030C948A000C943A040C941404D1
:100050000C948A000C948A000C948A000C948A00F8
:100060000C948A000C948A000000000023002600F3
:10007000290000000000240027002A0000000000E2
:10008000250028002B0004040404040404040202D4
:100090000202020203030303030301020408102007
:1000A0004080010204081020010204081020000012
:1000B0000008000201000003040700000000000027
:1000C00000006D0511241FBECFEFD8E0DEBFCDBF0D
:1000D00011E0A0E0B1E0ECE8F4E102C005900D927F
:1000E000A631B107D9F721E0A6E1B1E001C01D9228
:1000F000A23FB207E1F710E0C2E6D0E004C02197CA
:10010000FE010E947208C136D107C9F70E94E405BA
:100110000C94440A0C94000090E0FC01E255FF4F5F
:100120002491FC01E656FF4F3491FC01EA57FF4F42
:10013000E491EE23C9F0222339F0233001F1A8F431
:10014000213019F1223029F1F0E0EE0FFF1FE458C1
:10015000FF4FA591B4918FB7F894EC91611126C02F
:1001600030953E233C938FBF08952730A9F0283067
:10017000C9F0243049F7809180008F7D03C08091C1
:1001800080008F7780938000DFCF84B58F7784BD28
:10019000DBCF84B58F7DFBCF8091B0008F778093CC
:1001A000B000D2CF8091B0008F7DF9CF3E2BDACF57
:1001B000CF93DF9390E0FC01E656FF4F24918A57DE
:1001C0009F4FFC0184918823C9F090E0880F991F0C
:1001D000FC01EE58FF4FA591B491FC01E458FF4F8C
:1001E000C591D49161110DC09FB7F8948C91209561
:1001F00082238C938881282328839FBFDF91CF910E
:100200000895623051F49FB7F8943C91822F809505
:1002100083238C93E8812E2BEFCF8FB7F894EC914A
:100220002E2B2C938FBFEACF3FB7F89480912601F5
:1002300090912701A0912801B091290126B5A89B92
:1002400005C02F3F19F00196A11DB11D3FBFBA2F68
:10025000A92F982F8827BC01CD01620F711D811D28
:10026000911D42E0660F771F881F991F4A95D1F7AD
:1002700008958F929F92AF92BF92CF92DF92EF92AA
:10028000FF920E9414014B015C018CEDC82E85E0A9
:10029000D82EE12CF12C0E941401681979098A09E1
:1002A0009B09683E734081059105A8F321E0C21ABD
:1002B000D108E108F10888EE880E83E0981EA11CA1
:1002C000B11CC114D104E104F10429F7FF90EF90AF
:1002D000DF90CF90BF90AF909F908F90089508953A
:1002E000AF92BF92CF92DF92EF92FF920F931F9344
:1002F000CF93DF936C017B018B01040F151FEB0182
:100300005E01AE18BF08C017D10759F06991D60138
:10031000ED91FC910190F081E02DC6010995892BAA
:1003200079F7C501DF91CF911F910F91FF90EF9069
:10033000DF90CF90BF90AF900895FC01538D448D16
:10034000252F30E0842F90E0821B930B541710F080
:10035000CF96089501970895FC01918D828D98178D
:1003600061F0A28DAE0FBF2FB11D5D968C91928D65
:100370009F5F9F73928F90E008958FEF9FEF089596
:10038000FC01918D828D981731F0828DE80FF11D5F
:10039000858D90E008958FEF9FEF0895FC01918D7A
:1003A000228D892F90E0805C9F4F821B91098F7373
:1003B000992708958AE291E00E94CE0121E0892BDD
:1003C00009F420E0822F089580E090E0892B29F045
:1003D0000E94DA0181110C9400000895FC01A48DA3
:1003E000A80FB92FB11DA35ABF4F2C91848D90E057
:1003F00001968F739927848FA689B7892C93A0893A
:10040000B1898C91837080648C93938D848D9813C3
:1004100006C00288F389E02D80818F7D8083089556
:10042000EF92FF920F931F93CF93DF93EC0181E044
:10043000888F9B8D8C8D98131AC0E889F9898081EB
:1004400085FF15C09FB7F894EE89FF896083E8891E
:10045000F98980818370806480839FBF81E090E010
:10046000DF91CF911F910F91FF90EF900895F62E9D
:100470000B8D10E00F5F1F4F0F731127E02E8C8D37
:100480008E110CC00FB607FCFACFE889F98980817C
:1004900085FFF5CFCE010E94EE01F1CFEB8DEC0F81
:1004A000FD2FF11DE35AFF4FF0829FB7F8940B8F99
:1004B000EA89FB8980818062CFCF682F8AE291E050
:1004C0000C941002CF93DF93EC01888D8823B9F050
:1004D000AA89BB89E889F9898C9185FD03C080814F
:1004E00086FD0DC00FB607FCF7CF8C9185FFF2CFCC
:1004F000808185FFEDCFCE010E94EE01E9CFDF9133
:10050000CF9108958F929F92AF92BF92FF920F93D7
:100510001F93CF93DF93FC01F0808BE08F1508F4DD
:100520004AC0828108E512E0081B110987FD139576
:10053000000F111F000F111F8181C8E8D0E0C81BF8
:10054000D10987FDD395CC0FDD1FCC0FDD1F4E01E8
:100550000D2E000CAA08BB089801012E000C440BBC
:10056000550B281939094A095B09DB010E942D083E
:1005700024EB30E040E050E00E940308820E931E1E
:10058000A41EB51E8C169D062CF0E801801691065F
:100590000CF4E4012297CC0FDD1F2FB7F8948F2DB8
:1005A00090E0FC01EE0FFF1FE80FF91FE953FE4F2B
:1005B000D283C1832FBFDF91CF911F910F91FF9005
:1005C000BF90AF909F908F900895892B79F41092EF
:1005D000800082E080938100109285001092840058
:1005E000B19A80916F00826080936F0008956AE5F0
:1005F00070E08FEE91E00E9482026AE570E08CEE7E
:1006000091E00C9482022FB7F8948091220190918E
:100610002301A0912401B09125012FBF4091160123
:10062000509117016091180170911901841B950B6D
:10063000A60BB70BC297A105B10538F18091200137
:1006400091E0892780932001809120018823F1F097
:100650000E94F7028AEF90E00E945D0261E08DE067
:100660000E948C002FB7F894809122019091230171
:10067000A0912401B09125012FBF80931601909382
:100680001701A0931801B093190108958EEF90E01F
:100690000E945D0260E0E3CF70E060E08FEE91E0E9
:1006A0000E94820270E060E08CEE91E00C94820285
:1006B00062EB70E08FEE91E00E94820262EB70E0EC
:1006C0008CEE91E00C94820262EB70E08FEE91E090
:1006D0000E94820270E060E08CEE91E00C94820255
:1006E00070E060E08FEE91E00E94820262EB70E0C9
:1006F0008CEE91E00C9482021F920F920FB60F9233
:1007000011242F933F938F939F93AF93BF93809127
:10071000220190912301A0912401B09125013091F3
:10072000210123E0230F2D3758F50196A11DB11D9E
:10073000209321018093220190932301A09324010F
:10074000B09325018091260190912701A091280165
:10075000B09129010196A11DB11D809326019093AE
:100760002701A0932801B0932901BF91AF919F91D8
:100770008F913F912F910F900FBE0F901F90189562
:1007800026E8230F0296A11DB11DD2CF1F920F9212
:100790000FB60F9211242F933F934F935F936F9354
:1007A0007F938F939F93AF93BF93EF93FF93E091CA
:1007B0000201F09103010995FF91EF91BF91AF9173
:1007C0009F918F917F916F915F914F913F912F9169
:1007D0000F900FBE0F901F9018951F920F920FB69B
:1007E0000F9211242F933F934F935F936F937F93B7
:1007F0008F939F93AF93BF93EF93FF93E09100018B
:10080000F09101010995FF91EF91BF91AF919F91F7
:100810008F917F916F915F914F913F912F910F90A9
:100820000FBE0F901F9018951F920F920FB60F9248
:1008300011242F933F934F935F936F937F938F93E5
:100840009F93AF93BF93EF93FF938AE291E00E944F
:10085000EE01FF91EF91BF91AF919F918F917F91A9
:100860006F915F914F913F912F910F900FBE0F901D
:100870001F9018951F920F920FB60F9211242F936D
:100880008F939F93EF93FF93E0913A01F0913B0197
:100890008081E0914001F091410182FD1BC0908177
:1008A000809143018F5F8F7320914401821741F043
:1008B000E0914301F0E0E65DFE4F958F80934301A8
:1008C000FF91EF919F918F912F910F900FBE0F90FD
:1008D0001F9018958081F4CF1F920F920FB60F9240
:1008E00011242F933F934F935F936F937F938F9335
:1008F0009F93AF93BF93CF93DF93EF93FF93809139
:100900001A01C091EB01D0E087FF24C0109285004E
:100910001092840080911A018F5F80931A01809158
:100920001A01082E000C990B8C179D0724F4809156
:100930001A018C30C4F18091840090918500049656
:1009400080349C4908F47AC080918400909185009D
:10095000049676C080911A01082E000C990B8C1712
:100960009D07C4F6E0911A018E2FEE0F990BFC0142
:10097000EE0FFF1FE80FF91FE953FE4F808186FF3E
:10098000C9CFE0911A018E2FEE0F990BFC01EE0FEB
:10099000FF1FE80FF91FE953FE4F808160E08F735E
:1009A0000E948C00B7CF2091840030918500E091A7
:1009B0001A018E2FEE0F990BFC01EE0FFF1FE80FAF
:1009C000F91FE953FE4F81819281820F931F90930B
:1009D000890080938800E0911A018E2FEE0F990B09
:1009E000FC01EE0FFF1FE80FF91FE953FE4F808156
:1009F00086FF11C0E0911A018E2FEE0F990BFC01BA
:100A0000EE0FFF1FE80FF91FE953FE4F808161E0F1
:100A10008F730E948C00FF91EF91DF91CF91BF9176
:100A2000AF919F918F917F916F915F914F913F9186
:100A30002F910F900FBE0F901F90189580E49CE9A6
:100A400090938900809388008FEF80931A01E3CF01
:100A5000CF92DF92EF92FF920F931F93E82FF92F1F
:100A600005C0015011092109310961F190819623D6
:100A70009417B9F305C0015011092109310911F189
:100A8000908196239413F7CFC12CD12CE12CF12C1B
:100A90000AC08FEFC81AD80AE80AF80A0C151D0513
:100AA0002E053F0579F080818623841791F36C2D04
:100AB0007D2D8E2D9F2D1F910F91FF90EF90DF9038
:100AC000CF90089560E070E080E090E01F910F917A
:100AD000FF90EF90DF90CF90089510922D0110922B
:100AE0002C0188EE93E0A0E0B0E080932E0190937B
:100AF0002F01A0933001B093310188E091E09093F1
:100B00002B0180932A0185EC90E09093370180932C
:100B1000360184EC90E0909339018093380180ECA9
:100B200090E090933B0180933A0181EC90E09093A8
:100B30003D0180933C0182EC90E090933F018093D3
:100B40003E0186EC90E09093410180934001109229
:100B50004301109244011092450110924601809188
:100B6000EB018C3048F591E0980F9093EB01809366
:100B7000EF0190E0FC01EE0FFF1FE80FF91FE953B2
:100B8000FE4F88EB9BE0928381838091EB018C3058
:100B9000B8F491E0980F9093EB018093EC0190E012
:100BA000FC01EE0FFF1FE80FF91FE953FE4F88EB22
:100BB0009BE09283818308958FEF8093EF01E5CFCF
:100BC0008FEF8093EC010895789484B5826084BDA2
:100BD00084B5816084BD85B5826085BD85B5816041
:100BE00085BD80916E00816080936E0010928100BF
:100BF000809181008260809381008091810081607A
:100C0000809381008091800081608093800080913A
:100C1000B10084608093B1008091B00081608093C6
:100C2000B00080917A00846080937A0080917A008D
:100C3000826080937A0080917A00816080937A004C
:100C400080917A00806880937A001092C10061E000
:100C50008DE00E94D80060E08DE00E948C0062E090
:100C600082E00E94D80083E093E09093010180939A
:100C70000001809169008C7F826080936900E89A0E
:100C800061E08BE00E94D80060E08AE00E94D8001A
:100C90008091EF018C3008F043C061E086E00E9453
:100CA000D8008091EF01282F30E0F901EE0FFF1FEF
:100CB000E20FF31FE953FE4F9081907C9660908382
:100CC0001092F0011092F1012CE0622F0E94660850
:100CD00090E0829FB001112430E020E0AB01420F90
:100CE000531FFA01EE0FFF1FE40FF51FE953FE4FEC
:100CF000408146FD07C02F5F3F4F2C30310571F713
:100D00000E94E502E091EF018E2F90E0FC01EE0FD2
:100D1000FF1FE80FF91FE953FE4F80818064808335
:100D20008091EC018C3008F043C061E085E00E94C6
:100D3000D8008091EC01282F30E0F901EE0FFF1F61
:100D4000E20FF31FE953FE4F9081907C95609083F2
:100D50001092ED011092EE012CE0622F0E946608C5
:100D600090E0829FB001112430E020E0AB01420FFF
:100D7000531FFA01EE0FFF1FE40FF51FE953FE4F5B
:100D8000408146FD07C02F5F3F4F2C30310571F782
:100D90000E94E502E091EC018E2F90E0FC01EE0F45
:100DA000FF1FE80FF91FE953FE4F808180648083A5
:100DB000E0913A01F0913B0182E08083E0913601BD
:100DC000F09137011082E0913801F09139018FECF8
:100DD000808310924201E0913E01F0913F0186E054
:100DE0008083E0913C01F0913D01808180618083AE
:100DF000E0913C01F0913D01808188608083E09129
:100E00003C01F0913D01808180688083E0913C014C
:100E1000F0913D0180818F7D80830E9470030E944C
:100E200039010E9464030E9439010E9458030E9404
:100E300039010E944C030E9439010E94F7020E946E
:100E400039018AE291E00E94CE01892BD1F38AE236
:100E500091E00E94AC01813DA1F782ED90E00E94FB
:100E60005D02C3E2D0E090E0292E90E0392E8AE2C4
:100E700091E00E94CE01181619068CF48AE291E0E6
:100E80000E94AC0190912001911109C0813E09F0AE
:100E90009EC080911B01811102C00E9470038FB718
:100EA000F8948090220190902301A0902401B090AA
:100EB00025018FBF80911C0190911D01A0911E0101
:100EC000B0911F01A5019401281B390B4A0B5B0B44
:100ED000DA01C901893B9B40A105B10508F46BC04B
:100EE00061E08BE00E948C00CE010197F1F760E099
:100EF0008BE00E948C00E4EAF0E06491E0E9F0E02D
:100F00008491E82FF0E0EE0FFF1FE859FF4F859125
:100F1000949100E412E42FE030E0462F0E9428056F
:100F2000611571058105910529F06F5F7F4F8F4F26
:100F30009F4F9F700E94250920E030E048E652E470
:100F40000E947D082B013C0120E030E040E05FE39F
:100F50000E94D7090E94EF086B018DEF90E00E947C
:100F60005D02B6016F3F710519F014F06FEF70E08C
:100F70008AE291E00E941002F0901B0120E030E034
:100F800048E452E4C301B2010E9478081816A4F1A3
:100F9000F11002C00E94F70281E080931B018BEFE9
:100FA00090E00E945D0280921C0190921D01A0922F
:100FB0001E01B0921F012114310409F458CF0E9480
:100FC000DA01882309F453CF0E94000050CF823EFB
:100FD00019F40E94640363CF833E19F40E945803FE
:100FE0005ECF843E19F40E944C0359CF803E09F035
:100FF00056CF0E94F70253CFFF20A9F210921B0197
:101000008CEF90E0CECF052E97FB1EF400940E944B
:101010001A0857FD07D00E94350807FC03D04EF48C
:101020000C941A0850954095309521953F4F4F4F9D
:101030005F4F089590958095709561957F4F8F4F84
:101040009F4F08950E945708A59F900DB49F900D43
:10105000A49F800D911D11240895B7FF0C942208C0
:101060000E942208821B930B0895A1E21A2EAA1B4C
:10107000BB1BFD010DC0AA1FBB1FEE1FFF1FA21748
:10108000B307E407F50720F0A21BB30BE40BF50B45
:10109000661F771F881F991F1A9469F760957095CE
:1010A000809590959B01AC01BD01CF010895A29F51
:1010B000B001B39FC001A39F700D811D1124911D2C
:1010C000B29F700D811D1124911D0895991B79E027
:1010D00004C0991F961708F0961B881F7A95C9F7C8
:1010E00080950895EE0FFF1F0590F491E02D09946F
:1010F0000E94620908F481E008950E9491080C940E
:101100009D090E94960958F00E948F0940F029F429
:101110005F3F29F00C94860951110C94D1090C946D
:101120008C090E94AE0968F39923B1F3552391F31A
:10113000951B550BBB27AA2762177307840738F046
:101140009F5F5F4F220F331F441FAA1FA9F335D0A3
:101150000E2E3AF0E0E832D091505040E695001C57
:10116000CAF72BD0FE2F29D0660F771F881FBB1F11
:10117000261737074807AB07B0E809F0BB0B802DEF
:10118000BF01FF2793585F4F3AF09E3F510578F01B
:101190000C9486090C94D1095F3FE4F3983ED4F394
:1011A000869577956795B795F7959F5FC9F7880FEF
:1011B000911D9695879597F90895E1E0660F771F41
:1011C000881FBB1F621773078407BA0720F0621BD2
:1011D000730B840BBA0BEE1F88F7E09508950E94FD
:1011E000F6086894B1110C94D10908950E94B609CB
:1011F00088F09F5798F0B92F9927B751B0F0E1F0D8
:10120000660F771F881F991F1AF0BA95C9F714C087
:10121000B13091F00E94D009B1E008950C94D0094A
:10122000672F782F8827B85F39F0B93FCCF38695C0
:1012300077956795B395D9F73EF49095809570951D
:1012400061957F4F8F4F9F4F0895E89409C097FB9A
:101250003EF490958095709561957F4F8F4F9F4F8D
:101260009923A9F0F92F96E9BB279395F6958795D1
:1012700077956795B795F111F8CFFAF4BB0F11F494
:1012800060FF1BC06F5F7F4F8F4F9F4F16C088233B
:1012900011F096E911C0772321F09EE8872F762F71
:1012A00005C0662371F096E8862F70E060E02AF0B2
:1012B0009A95660F771F881FDAF7880F969587959E
:1012C00097F90895990F0008550FAA0BE0E8FEEF73
:1012D00016161706E807F907C0F012161306E407FA
:1012E000F50798F0621B730B840B950B39F40A26F3
:1012F00061F0232B242B252B21F408950A2609F4D1
:10130000A140A6958FEF811D811D089597F99F67D4
:1013100080E870E060E008959FEF80EC089500247D
:101320000A941616170618060906089500240A944A
:1013300012161306140605060895092E0394000CD0
:1013400011F4882352F0BB0F40F4BF2B11F460FF5F
:1013500004C06F5F7F4F8F4F9F4F089557FD905888
:10136000440F551F59F05F3F71F04795880F97FB69
:10137000991F61F09F3F79F0879508951216130623
:101380001406551FF2CF4695F1DF08C01616170652
:101390001806991FF1CF8695710561050894089587
:1013A000E894BB2766277727CB0197F908950E9419
:1013B000EA090C949D090E948F0938F00E94960951
:1013C00020F0952311F00C9486090C948C091124BB
:1013D0000C94D1090E94AE0970F3959FC1F3950F4B
:1013E00050E0551F629FF001729FBB27F00DB11DA9
:1013F000639FAA27F00DB11DAA1F649F6627B00D39
:10140000A11D661F829F2227B00DA11D621F739F21
:10141000B00DA11D621F839FA00D611D221F749F2F
:101420003327A00D611D231F849F600D211D822F76
:10143000762F6A2F11249F5750409AF0F1F088239D
:101440004AF0EE0FFF1FBB1F661F771F881F9150CA
:101450005040A9F79E3F510580F00C9486090C94EA
:10146000D1095F3FE4F3983ED4F38695779567956D
:10147000B795F795E7959F5FC1F7FE2B880F911DF4
:0C1480009695879597F90895F894FFCF92
:10148C006F016F0100000000100270019D016202EB
:06149C00CE01AC01C0010D
:00000001FF
